S01900004F6E2D64656D616E6420547261666669632E73726563D9
S11300000C942A000C9499000C943C000C943C0031
S11300100C943C000C943C000C943C000C943C006C
S11300200C943C000C943C000C943C000C943C005C
S11300300C943C000C943C000C943C000C943C004C
S11300400C943C000C943C000C943C000C943C003C
S11300500C943C0011241FBECFE5D8E0DEBFCDBF19
S113006020E0A0E6B0E001C01D92A136B207E1F79E
S11300700E941B010C9479020C94000062E084E459
S11300800E94080160E081E40E940C0161E081E4C7
S11300900E940C0162E081E40E940C0160E082E4B1
S11300A00E940C0161E082E40E940C0162E082E49F
S11300B00E940C01789485B7836085BF8BB78064F8
S11300C08BBF10926000089580916000811104C07C
S11300D00E94A800C0E00AC00E94EF00FBCF0E946B
S11300E0600280916000813019F0CF5FC530B8F3B1
S11300F080916000882359F00DC00E94C1000E94C5
S1130100600280916000813029F0CF5F01C0C0E0BF
S1130110C53098F3809160008130B1F606C00E942A
S1130120D6000E946002CF5F01C0C0E0C530B8F3C2
S1130130CBCF1F920F920FB60F9211248F9381E0B1
S1130140809360008F910F900FBE0F901F901895B1
S113015061E081E40E94100162E081E40E941001E8
S113016060E082E40E94100161E082E40E941001D8
S113017060E081E40E94140162E082E40E941401C0
S1130180089560E081E40E94100162E081E40E942D
S1130190100160E082E40E94100162E082E40E94A7
S11301A0100161E081E40E941801089560E081E497
S11301B00E94100162E081E40E94100160E082E488
S11301C00E94100162E082E40E94100161E081E477
S11301D00E94180161E082E40E941801089561E020
S11301E081E40E94100160E081E40E94100162E059
S11301F082E40E94100161E082E40E94100160E048
S113020082E40E94140162E081E40E9414010895D2
S113021040E00E942201089541E00E9422010895D5
S113022040E00E949C01089541E00E949C010895D1
S11302300E94160208950E943E000E94640080E01D
S113024090E00895823431F118F4813439F008953E
S11302508334E1F1843409F454C0089541110CC08D
S11302602AB381E090E002C0880F991F6A95E2F7F3
S1130270809582238ABB0895413009F05CC02AB37B
S113028081E090E002C0880F991F6A95E2F7822B03
S11302908ABB089541110CC027B381E090E002C0ED
S11302A0880F991F6A95E2F78095822387BB08958A
S11302B0413009F040C027B381E090E002C0880FCC
S11302C0991F6A95E2F7822B87BB089541110CC0F0
S11302D024B381E090E002C0880F991F6A95E2F789
S11302E08095822384BB0895413029F524B381E0AD
S11302F090E002C0880F991F6A95E2F7822B84BBB5
S1130300089541110CC021B381E090E002C0880F30
S1130310991F6A95E2F78095822381BB0895413045
S113032051F421B381E090E002C0880F991F6A95CF
S1130330E2F7822B81BB0895823431F118F48134C1
S113034039F008958334E1F1843409F454C00895F4
S113035041110CC02BB381E090E002C0880F991FBB
S11303606A95E2F7809582238BBB0895413009F0AA
S11303705CC02BB381E090E002C0880F991F6A959E
S1130380E2F7822B8BBB089541110CC028B381E0A6
S113039090E002C0880F991F6A95E2F78095822346
S11303A088BB0895413009F040C028B381E090E053
S11303B002C0880F991F6A95E2F7822B88BB0895C3
S11303C041110CC025B381E090E002C0880F991F51
S11303D06A95E2F78095822385BB0895413029F51B
S11303E025B381E090E002C0880F991F6A95E2F777
S11303F0822B85BB089541110CC022B381E090E0AB
S113040002C0880F991F6A95E2F78095822382BB08
S11304100895413051F422B381E090E002C0880F86
S1130420991F6A95E2F7822B82BB08958234A1F06A
S113043018F4813431F008958334C9F0843411F10F
S113044008952BB381E090E002C0880F991F6A954C
S1130450E2F782278BBB089528B381E090E002C0C5
S1130460880F991F6A95E2F7822788BB089525B300
S113047081E090E002C0880F991F6A95E2F7822715
S113048085BB089522B381E090E002C0880F991FD4
S11304906A95E2F7822782BB089582BF0895882374
S11304A019F0813029F0089583B7816083BF0895DE
S11304B083B7846083BF089588B7816088BF089537
S11304C0CF93DF9381E00E944F028CE090E00E9482
S11304D04D02C0E0D0E006C008B600FEFDCF0E9489
S11304E05C022196C031D105B8F313BEDF91CF91E0
S10904F00895F894FFCF0B
S9030000FC
