S01900004F6E2D64656D616E6420547261666669632E73726563D9
S11300000C942A000C94D5000C943C000C943C00F5
S11300100C943C000C943C000C943C000C943C006C
S11300200C943C000C943C000C943C000C943C005C
S11300300C943C000C943C000C943C000C943C004C
S11300400C943C000C943C000C943C000C943C003C
S11300500C943C0011241FBECFE5D8E0DEBFCDBF19
S113006020E0A0E6B0E001C01D92A136B207E1F79E
S11300700E9474010C94D2020C94000062E084E4A7
S11300800E94610160E081E40E94650161E081E415
S11300900E94650162E081E40E94650160E082E4FF
S11300A00E94650161E082E40E94650162E082E4ED
S11300B00E946501789485B7836085BF8BB780649F
S11300C08BBF10926000089580916000811104C07C
S11300D00E94E400C0E00AC00E944801FBCF0E94D5
S11300E0B90280916000813019F0CF5FC530B8F358
S11300F080916000882359F00DC00E9416010E946F
S1130100B90280916000813029F0CF5F01C0C0E066
S1130110C53098F3809160008130B1F461E081E4EE
S11301200E946901C0E005C00E942F010E94B9022B
S1130130CF5FC530C8F3C0E005C00E9448010E94EB
S1130140B902CF5FC530C8F380916000882339F0CD
S11301500AC00E94FD000E94B902CF5F01C0C0E046
S1130160C530B8F30DC061E081E40E946901C0E0CC
S113017005C00E942F010E94B902CF5FC530C8F3A9
S113018080916000882359F00DC00E9416010E94DE
S1130190B90280916000813029F0CF5F01C0C0E0D6
S11301A0C53098F3109260008FCF1F920F920FB654
S11301B00F9211248F9381E0809360008F910F90B0
S11301C00FBE0F901F90189561E081E40E946901B1
S11301D062E081E40E94690160E082E40E946901B6
S11301E061E082E40E94690160E081E40E946D01A3
S11301F062E082E40E946D01089561E081E40E945E
S1130200690160E081E40E94690160E082E40E9487
S1130210690161E082E40E94690162E081E40E9474
S11302206D0162E082E40E946D01089560E081E462
S11302300E94690162E081E40E94690160E082E455
S11302400E94690162E082E40E94690162E082E442
S11302500E946D0161E081E40E947101089560E0F3
S113026081E40E94690162E081E40E94690160E026
S113027082E40E94690162E082E40E94690161E013
S113028081E40E94710161E082E40E947101089599
S113029061E081E40E94690160E081E40E946901F7
S11302A062E082E40E94690161E082E40E946901E3
S11302B060E082E40E946D0162E081E40E946D01CD
S11302C0089540E00E947B01089541E00E947B0173
S11302D0089540E00E94F501089541E00E94F5016F
S11302E008950E946F0208950E943E000E946400D7
S11302F080E090E00895823431F118F4813439F0CB
S113030008958334E1F1843409F454C0089541110B
S11303100CC02AB381E090E002C0880F991F6A954F
S1130320E2F7809582238ABB0895413009F05CC0CE
S11303302AB381E090E002C0880F991F6A95E2F722
S1130340822B8ABB089541110CC027B381E090E051
S113035002C0880F991F6A95E2F78095822387BBB4
S11303600895413009F040C027B381E090E002C015
S1130370880F991F6A95E2F7822B87BB0895411174
S11303800CC024B381E090E002C0880F991F6A95E5
S1130390E2F78095822384BB0895413029F524B384
S11303A081E090E002C0880F991F6A95E2F7822BE2
S11303B084BB089541110CC021B381E090E002C0D8
S11303C0880F991F6A95E2F78095822381BB08956F
S11303D0413051F421B381E090E002C0880F991FAD
S11303E06A95E2F7822B81BB0895823431F118F4C7
S11303F0813439F008958334E1F1843409F454C02C
S1130400089541110CC02BB381E090E002C0880F25
S1130410991F6A95E2F7809582238BBB089541303A
S113042009F05CC02BB381E090E002C0880F991FF3
S11304306A95E2F7822B8BBB089541110CC028B357
S113044081E090E002C0880F991F6A95E2F78095D9
S1130450822388BB0895413009F040C028B381E06D
S113046090E002C0880F991F6A95E2F7822B88BB3F
S1130470089541110CC025B381E090E002C0880FBB
S1130480991F6A95E2F78095822385BB08954130D0
S113049029F525B381E090E002C0880F991F6A9581
S11304A0E2F7822B85BB089541110CC022B381E091
S11304B090E002C0880F991F6A95E2F78095822325
S11304C082BB0895413051F422B381E090E002C030
S11304D0880F991F6A95E2F7822B82BB08958234B4
S11304E0A1F018F4813431F008958334C9F08434D0
S11304F011F108952BB381E090E002C0880F991F99
S11305006A95E2F782278BBB089528B381E090E0D7
S113051002C0880F991F6A95E2F7822788BB089565
S113052025B381E090E002C0880F991F6A95E2F735
S1130530822785BB089522B381E090E002C0880F32
S1130540991F6A95E2F7822782BB089582BF0895B6
S1130550882319F0813029F0089583B7816083BF1F
S1130560089583B7846083BF089588B7816088BF86
S11305700895CF93DF9381E00E94A8028CE090E07D
S11305800E94A602C0E0D0E006C008B600FEFDCF7F
S11305900E94B5022196C031D105B8F313BEDF9194
S10B05A0CF910895F894FFCFF8
S9030000FC
