S01900004F6E2D64656D616E6420547261666669632E73726563D9
S11300000C942A000C94ED000C943C000C943C00DD
S11300100C943C000C943C000C943C000C943C006C
S11300200C943C000C943C000C943C000C943C005C
S11300300C943C000C943C000C943C000C943C004C
S11300400C943C000C943C000C943C000C943C003C
S11300500C943C0011241FBECFE5D8E0DEBFCDBF19
S113006020E0A0E6B0E001C01D92A136B207E1F79E
S11300700E9493010C9455030C94000062E084E404
S11300800E94790160E081E40E94840161E081E4DE
S11300900E94840162E081E40E94840160E082E4C1
S11300A00E94840161E082E40E94840162E082E4AF
S11300B00E948401789485B7836085BF8BB7806480
S11300C08BBF10926000089580916000811104C07C
S11300D00E94FC00C0E010C00E946001FBCF0E949F
S11300E03C0380916000813031F462E084E40E943A
S11300F07D01882319F0CF5FC53088F380916000BB
S1130100882389F013C00E942E010E943C03809131
S11301106000813031F462E084E40E947D01882330
S113012029F0CF5F01C0C0E0C53068F38091600062
S11301308130E1F462E084E40E947D01811116C003
S113014061E081E40E948801C0E005C00E9447018B
S11301500E943C03CF5FC530C8F3C0E005C00E94D5
S113016060010E943C03CF5FC530C8F380916000FA
S1130170882339F00AC00E9415010E943C03CF5F16
S113018001C0C0E0C530B8F313C062E084E40E944B
S11301907D0181110DC061E081E40E948801C0E00D
S11301A005C00E9447010E943C03CF5FC530C8F3DD
S11301B080916000882359F00DC00E942E010E9496
S11301C03C0380916000813029F0CF5F01C0C0E022
S11301D0C53098F31092600077CF1F920F920FB63C
S11301E00F9211248F9381E0809360008F910F9080
S11301F00FBE0F901F90189561E081E40E94880162
S113020062E081E40E94880160E082E40E94880147
S113021061E082E40E94880160E081E40E948C0134
S113022062E082E40E948C01089561E081E40E940E
S1130230880160E081E40E94880160E082E40E9419
S1130240880161E082E40E94880162E081E40E9406
S11302508C0162E082E40E948C01089560E081E4F4
S11302600E94880162E081E40E94880160E082E4E7
S11302700E94880162E082E40E94880162E082E4D4
S11302800E948C0161E081E40E949001089560E085
S113029081E40E94880162E081E40E94880160E0B8
S11302A082E40E94880162E082E40E94880161E0A5
S11302B081E40E94900161E082E40E94900108952B
S11302C061E081E40E94880160E081E40E94880189
S11302D062E082E40E94880161E082E40E94880175
S11302E060E082E40E948C0162E081E40E948C015F
S11302F0089540E00E949A01089540E050E00E9471
S11303008E0280910000089541E00E949A010895B0
S113031040E00E941402089541E00E9414020895EE
S11303200E94F20208950E943E000E94640080E050
S113033090E00895823431F118F4813439F008954D
S11303408334E1F1843409F454C0089541110CC09C
S11303502AB381E090E002C0880F991F6A95E2F702
S1130360809582238ABB0895413009F05CC02AB38A
S113037081E090E002C0880F991F6A95E2F7822B12
S11303808ABB089541110CC027B381E090E002C0FC
S1130390880F991F6A95E2F78095822387BB089599
S11303A0413009F040C027B381E090E002C0880FDB
S11303B0991F6A95E2F7822B87BB089541110CC0FF
S11303C024B381E090E002C0880F991F6A95E2F798
S11303D08095822384BB0895413029F524B381E0BC
S11303E090E002C0880F991F6A95E2F7822B84BBC4
S11303F0089541110CC021B381E090E002C0880F40
S1130400991F6A95E2F78095822381BB0895413054
S113041051F421B381E090E002C0880F991F6A95DE
S1130420E2F7822B81BB0895823431F118F48134D0
S113043039F008958334E1F1843409F454C0089503
S113044041110CC02BB381E090E002C0880F991FCA
S11304506A95E2F7809582238BBB0895413009F0B9
S11304605CC02BB381E090E002C0880F991F6A95AD
S1130470E2F7822B8BBB089541110CC028B381E0B5
S113048090E002C0880F991F6A95E2F78095822355
S113049088BB0895413009F040C028B381E090E062
S11304A002C0880F991F6A95E2F7822B88BB0895D2
S11304B041110CC025B381E090E002C0880F991F60
S11304C06A95E2F78095822385BB0895413029F52A
S11304D025B381E090E002C0880F991F6A95E2F786
S11304E0822B85BB089541110CC022B381E090E0BA
S11304F002C0880F991F6A95E2F78095822382BB18
S11305000895413051F422B381E090E002C0880F95
S1130510991F6A95E2F7822B82BB0895823401F118
S113052018F4813439F00895833481F1843409F462
S113053043C0089579B381E090E09C01062E02C087
S1130540220F331F0A94E2F7872F90E0822393232C
S113055002C0959587956A95E2F7FA01808308951C
S113056076B381E090E09C01062E02C0220F331F77
S11305700A94E2F7872F90E08223932302C0959593
S113058087956A95E2F7FA018083089573B381E051
S113059090E09C01062E02C0220F331F0A94E2F75A
S11305A0872F90E08223932302C0959587956A95BF
S11305B0E2F7FA018083089570B381E090E09C0132
S11305C0062E02C0220F331F0A94E2F7872F90E011
S11305D08223932302C0959587956A95E2F7FA01E1
S11305E0808308958234A1F018F4813431F00895A1
S11305F08334C9F0843411F108952BB381E090E081
S113060002C0880F991F6A95E2F782278BBB089571
S113061028B381E090E002C0880F991F6A95E2F741
S1130620822788BB089525B381E090E002C0880F3B
S1130630991F6A95E2F7822785BB089522B381E06A
S113064090E002C0880F991F6A95E2F7822782BB67
S1130650089582BF0895882319F0813029F0089500
S113066083B7816083BF089583B7846083BF08958F
S113067088B7816088BF0895CF93DF9381E00E949B
S11306802B038CE090E00E942903C0E0D0E006C078
S113069008B600FEFDCF0E9438032196C031D10573
S11106A0B8F313BEDF91CF910895F894FFCF05
S9030000FC
